:100000000C9474000C9495000C9495000C9495003D
:100010000C9495000C9495000C9495000C9495000C
:100020000C9495000C9495000C9495000C949500FC
:100030000C9495000C9495000C9495000C949500EC
:100040000C9495000C9495000C9495000C949500DC
:100050000C9495000C9495000C9495000C949500CC
:100060000C9495000C9495000C94A8000C949500A9
:100070000C9495000C9495000C9495000C949500AC
:100080000C9495000C9495000C9495000C9495009C
:100090000C9495000C9495000C9495000C94E00041
:1000A0000C9495000C9495000C9495000C9495007C
:1000B0000C9495000C9495000C9495000C9495006C
:1000C0000C9495000C9495000C9495000C9495005C
:1000D0000C9495000C9495000C9495000C9495004C
:1000E0000C9495000C94970011241FBECFEFD1E221
:1000F000DEBFCDBF00E00CBF12E0A0E0B2E0E0E068
:10010000F2E100E00BBF02C007900D92A03FB107E3
:10011000D9F723E0A0EFB2E001C01D92AD3FB207D6
:10012000E1F70E943B040C94FE080C940000CF936E
:10013000C82F8A3019F48DE00E9497008091C0008A
:1001400085FFFCCFC093C60080E090E0CF9108957A
:100150001F920F920FB60F9211240BB60F922F938E
:100160003F934F935F936F937F938F939F93AF933F
:10017000BF93EF93FF9383EF92E00E949503811169
:1001800007C083EF92E00E94AD038093C60005C0D4
:100190008091C1008F7D8093C100FF91EF91BF914D
:1001A000AF919F918F917F916F915F914F913F910F
:1001B0002F910F900BBE0F900FBE0F901F901895B0
:1001C0001F920F920FB60F9211240BB60F920F933E
:1001D0001F932F933F934F935F936F937F938F93CF
:1001E0009F93AF93BF93CF93EF93FF938EE092E0F3
:1001F0009F938F930E9413068091B9001F928F9353
:100200000DE212E01F930F930E941306C091B900F4
:10021000CC7F8091B9001F928F938AE192E09F93E7
:100220008F930E9413061F92CF9386E292E09F93D2
:100230008F930E9413068DB79EB70E960FB6F89453
:100240009EBF0FBE8DBFC83109F43FC028F4C8302F
:1002500069F0C03159F007C1C03409F47CC0C03521
:1002600009F4B2C0C83209F0FEC054C082E392E083
:100270000E9427068091B9001F928F938DE292E031
:100280009F938F930E9413068091F2020F900F901C
:100290000F900F90811103C081E090E002C080E0D8
:1002A00090E00E94C90388E392E00E9427068091B3
:1002B000B9001F928F938DE292E09F938F930E94DB
:1002C00013060F900F900F900F9084E592E00E941C
:1002D00027068091B9001F928F930DE212E01F93C1
:1002E0000F930E94130680E10E94EE0384E692E0E1
:1002F0000E9427068091B9001F928F931F930F933E
:100300000E9413068DB79EB708960FB6F8949EBF4D
:100310000FBE8DBF8EE692E00E9427068091B90045
:100320001F928F930DE212E01F930F930E9413060A
:100330000E94C5038091B9001F928F931F930F9362
:100340000E9413068DB79EB708960FB6F8949EBF0D
:100350000FBE8DBF88C08091B9001F928F931F93ED
:100360000F930E9413068DE792E00E94270680916A
:10037000B9001F928F931F930F930E9413060E9440
:10038000F80390E09093F1028093F0028091F002E4
:100390009091F102982F88279093F1028093F002B8
:1003A00087E892E00E9427068091B9001F928F9300
:1003B0001F930F930E9413068DB79EB70C960FB62E
:1003C000F8949EBF0FBE8DBF83E992E00E9427067E
:1003D0008091B9001F928F930DE212E01F930F934B
:1003E0000E9413060E9402042091F0023091F10253
:1003F000282B3093F1022093F0026091F00270916B
:10040000F10280E090E00E9485052AE939E949E996
:100410005FE30E94E4040E9456057093F10260932A
:10042000F0028EE992E00E9427068091B9001F92A7
:100430008F931F930F930E9413060E94C5038DEAAA
:1004400092E00E9427068091B9001F928F931F931C
:100450000F930E9413068DB79EB70C960FB6F894B3
:100460009EBF0FBE8DBF8091BC0080688093BC0092
:100470008AE692E00E94270688EB92E00E94270617
:10048000FF91EF91CF91BF91AF919F918F917F910C
:100490006F915F914F913F912F911F910F910F900D
:1004A0000BBE0F900FBE0F901F901895279A519872
:1004B0005098599A589A2F9808951092C50088E03C
:1004C0008093C400E1ECF0E080818B7F8083A2EC1C
:1004D000B0E08C9186608C938C91877C8C9380812A
:1004E000886080830895CF93DF93EC01888188230F
:1004F00069F083EF92E00E947203811105C0688168
:1005000083EF92E00E94A1032196F0CFDF91CF917B
:100510000895CF92DF92EF92FF920F931F93CF93A4
:10052000DF93CDB7DEB7E1970FB6F894DEBF0FBE0D
:10053000CDBF9C0181E1EFECF2E0DE0191960190EC
:100540000D928A95E1F78E010F5F1F4F211531053E
:1005500021F480E389831A8249C0780190E1C92E91
:10056000D12CC901B6010E948F04E1E2F0E0EC0F4A
:10057000FD1FE80FF91F8081F70181937F0137FF8D
:1005800002C0215F3F4F84E0359527958A95E1F7BA
:10059000F701E01BF10B2115310519F7E00FF11FF1
:1005A000108291E080E029812D3209F090E0292F1E
:1005B000382FF801AF01401B510B81918111FACF07
:1005C00041505109241735076CF4D801A40FB51F09
:1005D0008C91F801E20FF31F90819C9380832F5F31
:1005E0003F4FEECF8CEC92E00E947302C8010E9454
:1005F0007302E1960FB6F894DEBF0FBECDBFDF9158
:10060000CF911F910F91FF90EF90DF90CF900895C1
:10061000CF93DF931F92CDB7DEB7682F83EF92E0C1
:1006200069830E9472036981811107C083EF92E0A0
:100630000F90DF91CF910C94A1030F90DF91CF9198
:1006400008958F929F92AF92BF92CF92DF92EF92D6
:10065000FF920F931F93CF93DF936B017C018AE08E
:10066000882E912CA12CB12CF7FE0BC08DE20E949C
:100670000803F094E094D094C094C11CD11CE11CF8
:10068000F11C8AE0C816D104E104F1048CF0C70122
:10069000B601A50194010E94A3048B01D82FC92F94
:1006A000CA01B9010E9421036801ED2EFC2EDCCFA6
:1006B00080E38C0DDF91CF911F910F91FF90EF9010
:1006C000DF90CF90BF90AF909F908F900C940803D5
:1006D000FC01F3957183608332961082319610820B
:1006E00081E00895CF93DF93FC01EE5FFE4FC08160
:1006F000D0E03196208130E02F5F3F4F339760810B
:100700007181C9010E947B049C0181E0C217D3075B
:1007100009F080E0DF91CF910895FC011082EE5F37
:10072000FE4F1082319610820895DC01AE5FBE4FFD
:10073000FC01ED5FFE4F81E02C919081291380E058
:100740000895FC01ED5FFE4F208131E0320F3083D0
:10075000FC01E20FF11D60830895FC01EE5FFE4F86
:10076000208131E0320F3083FC01E20FF11D8081E6
:10077000089588E48093B800089585EA8093BC00CA
:100780008091BC0087FFFCCF089584E98093BC0072
:100790000895019759F486E48093BB0084E8809320
:1007A000BC008091BC0087FFFCCF089587E4809354
:1007B000BB0084E88093BC008091BC0087FFFCCF25
:1007C000089580EE92E00E9473028091B90090E05B
:1007D0000E94890289EC92E00C9473028093BB0022
:1007E00084E88093BC008091BC0087FFFCCF089513
:1007F00084EC8093BC008091BC0087FFFCCF80918B
:10080000BB00089584E88093BC008091BC0087FF02
:10081000FCCF8091BB000895CF93DF930E94BD036E
:1008200080E090E00E94C9030E94F803C82FD0E046
:10083000DC2FCC270E940204C82B0E94C503BE01F6
:1008400080E090E00E9485052AE939E949E95FE303
:100850000E94E4040E945605CB01DF91CF910895D8
:100860000E94BD0381E090E00E94C90380E10E94E4
:10087000EE030C94C503F8940E94560260E071E008
:1008800083EF92E00E9468030E945D020E94B90318
:10089000789480E092E09093FA038093F9030E94A9
:1008A000BD03C1E08DEB92E00E9427060E94BD03CC
:1008B000C093F2026091F0027091F10280E090E04A
:1008C0000E94210386EC92E00E94730283EF92E083
:1008D0000E949503811105C08091C10080628093C0
:1008E000C1002FEF83EC99E0215080409040E1F768
:1008F00000C00000D7CFAA1BBB1B51E107C0AA1F35
:10090000BB1FA617B70710F0A61BB70B881F991FB0
:100910005A95A9F780959095BC01CD01089597FB54
:10092000072E16F4009407D077FD09D00E947B04AF
:1009300007FC05D03EF4909581959F4F08957095E2
:1009400061957F4F0895052E97FB1EF400940E9439
:10095000BA0457FD07D00E94C20407FC03D04EF42E
:100960000C94BA0450954095309521953F4F4F4FC8
:100970005F4F089590958095709561957F4F8F4F4B
:100980009F4F0895A1E21A2EAA1BBB1BFD010DC0AB
:10099000AA1FBB1FEE1FFF1FA217B307E407F5072F
:1009A00020F0A21BB30BE40BF50B661F771F881F0B
:1009B000991F1A9469F760957095809590959B01A1
:1009C000AC01BD01CF0108950E94F8040C94D90533
:1009D0000E94D20558F00E94CB0540F029F45F3FF9
:1009E00029F00C94C20551110C940D060C94C80505
:1009F0000E94EA0568F39923B1F3552391F3951BFF
:100A0000550BBB27AA2762177307840738F09F5F2F
:100A10005F4F220F331F441FAA1FA9F335D00E2E9C
:100A20003AF0E0E832D091505040E695001CCAF709
:100A30002BD0FE2F29D0660F771F881FBB1F2617CC
:100A400037074807AB07B0E809F0BB0B802DBF01A3
:100A5000FF2793585F4F3AF09E3F510578F00C9472
:100A6000C2050C940D065F3FE4F3983ED4F38695DF
:100A700077956795B795F7959F5FC9F7880F911D93
:100A80009695879597F90895E1E0660F771F881F7F
:100A9000BB1F621773078407BA0720F0621B730B32
:100AA000840BBA0BEE1F88F7E09508950E94F205BB
:100AB00088F09F5798F0B92F9927B751B0F0E1F01F
:100AC000660F771F881F991F1AF0BA95C9F714C0CF
:100AD000B13091F00E940C06B1E008950C940C0620
:100AE000672F782F8827B85F39F0B93FCCF3869508
:100AF00077956795B395D9F73EF490958095709565
:100B000061957F4F8F4F9F4F0895E89409C097FBE1
:100B10003EF490958095709561957F4F8F4F9F4FD4
:100B20009923A9F0F92F96E9BB279395F695879518
:100B300077956795B795F111F8CFFAF4BB0F11F4DB
:100B400060FF1BC06F5F7F4F8F4F9F4F16C0882382
:100B500011F096E911C0772321F09EE8872F762FB8
:100B600005C0662371F096E8862F70E060E02AF0F9
:100B70009A95660F771F881FDAF7880F96958795E5
:100B800097F9089597F99F6780E870E060E008950D
:100B90009FEF80EC089500240A9416161706180695
:100BA0000906089500240A94121613061406050671
:100BB0000895092E0394000C11F4882352F0BB0F02
:100BC00040F4BF2B11F460FF04C06F5F7F4F8F4F65
:100BD0009F4F089557FD9058440F551F59F05F3FA0
:100BE00071F04795880F97FB991F61F09F3F79F04F
:100BF00087950895121613061406551FF2CF4695D1
:100C0000F1DF08C0161617061806991FF1CF869552
:100C10007105610508940895E894BB276627772736
:100C2000CB0197F90895CF93DF93CDB7DEB7AE012F
:100C30004A5F5F4FFA0161917191AF018091F903B1
:100C40009091FA030E945706DF91CF9108950F9378
:100C50001F93CF93DF93E091F903F091FA0323817F
:100C600021FF1BC08C01D0E0C0E0F80181918F0111
:100C70006091F9037091FA03DB011896ED91FC91F4
:100C80001997882331F01995892B79F3DFEFCFEF8E
:100C9000ECCF8AE01995892B19F08FEF9FEF02C0F6
:100CA0008D2F9C2FDF91CF911F910F9108952F923F
:100CB0003F924F925F926F927F928F929F92AF92EC
:100CC000BF92CF92DF92EF92FF920F931F93CF9339
:100CD000DF93CDB7DEB72C970FB6F894DEBF0FBE0B
:100CE000CDBF7C016B018A01FC01178216828381D2
:100CF00081FFBDC1CE0101964C01F7019381F60140
:100D000093FD859193FF81916F01882309F4ABC115
:100D1000853239F493FD859193FF81916F0185327E
:100D200029F4B70190E00E946808E7CF512C312CDC
:100D300020E02032A0F48B3269F030F4803259F098
:100D4000833269F420612CC08D3239F0803339F45C
:100D5000216026C02260246023C0286021C027FDB6
:100D600027C030ED380F3A3078F426FF06C0FAE09D
:100D70005F9E300D1124532E13C08AE0389E300D33
:100D80001124332E20620CC08E3221F426FD6BC15B
:100D9000206406C08C3611F4206802C0883641F405
:100DA000F60193FD859193FF81916F018111C1CF70
:100DB000982F9F7D9554933028F40C5F1F4FFFE3CD
:100DC000F9830DC0833631F0833771F0833509F034
:100DD0005BC022C0F801808189830E5F1F4F4424CD
:100DE0004394512C540115C03801F2E06F0E711C70
:100DF000F801A080B18026FF03C0652D70E002C01D
:100E00006FEF7FEFC5012C870E945D082C018301E5
:100E10002C852F77222E17C03801F2E06F0E711C3F
:100E2000F801A080B18026FF03C0652D70E002C0EC
:100E30006FEF7FEFC5012C870E9452082C012C8593
:100E40002068222E830123FC1BC0832D90E04816CE
:100E50005906B0F4B70180E290E00E9468083A9425
:100E6000F4CFF50127FC859127FE81915F01B70141
:100E700090E00E94680831103A94F1E04F1A51084E
:100E80004114510471F7E5C0843611F0893639F503
:100E9000F80127FF07C060817181828193810C5F17
:100EA0001F4F08C060817181072E000C880B990BC1
:100EB0000E5F1F4F2F76722E97FF09C09095809579
:100EC000709561957F4F8F4F9F4F2068722E2AE05B
:100ED00030E0A4010E94A008A82EA81844C08537BD
:100EE00029F42F7EB22E2AE030E025C0F22FF97FC0
:100EF000BF2E8F36C1F018F4883579F0B4C0803732
:100F000019F0883721F0AFC02F2F2061B22EB4FE28
:100F10000DC08B2D8460B82E09C024FF0AC09F2FFE
:100F20009660B92E06C028E030E005C020E130E030
:100F300002C020E132E0F801B7FE07C06081718194
:100F4000828193810C5F1F4F06C06081718180E0B8
:100F500090E00E5F1F4FA4010E94A008A82EA818C1
:100F6000FB2DFF777F2E76FE0BC0372D3E7FA5141D
:100F700050F474FE0AC072FC08C0372D3E7E05C0D6
:100F8000BA2C372D03C0BA2C01C0B52C34FF0DC0CC
:100F9000FE01EA0DF11D8081803311F4397E09C014
:100FA00032FF06C0B394B39404C0832F867809F04F
:100FB000B39433FD13C030FF06C05A2CB31418F499
:100FC000530C5B18B32CB31468F4B70180E290E0C3
:100FD0003C870E946808B3943C85F5CFB31410F4A5
:100FE0003B1801C0312C34FF12C0B70180E390E000
:100FF0003C870E9468083C8532FF17C031FD03C062
:1010000088E790E002C088E590E0B7010CC0832F2C
:10101000867859F031FF02C08BE201C080E237FDD3
:101020008DE2B70190E00E946808A51438F4B7017A
:1010300080E390E00E9468085A94F7CFAA94F401E4
:10104000EA0DF11D8081B70190E00E946808A110AF
:10105000F5CF332009F451CEB70180E290E00E9431
:1010600068083A94F6CFF7018681978102C08FEF26
:101070009FEF2C960FB6F894DEBF0FBECDBFDF9169
:10108000CF911F910F91FF90EF90DF90CF90BF9085
:10109000AF909F908F907F906F905F904F903F9018
:1010A0002F900895FC010590615070400110D8F711
:1010B000809590958E0F9F1F0895FC0161507040A0
:1010C00001900110D8F7809590958E0F9F1F08957D
:1010D0000F931F93CF93DF93FB01238121FD03C067
:1010E0008FEF9FEF28C022FF16C0468157812481D1
:1010F00035814217530744F4A081B1819D012F5FD0
:101100003F4F318320838C93268137812F5F3F4F60
:101110003783268310C0EB01092F182F0084F18537
:10112000E02D1995892BE1F68E819F8101969F8391
:101130008E83812F902FDF91CF911F910F91089572
:10114000FA01AA27283051F1203181F1E8946F93F8
:101150006E7F6E5F7F4F8F4F9F4FAF4FB1E03ED09E
:10116000B4E03CD0670F781F891F9A1FA11D680F3C
:10117000791F8A1F911DA11D6A0F711D811D911D6F
:10118000A11D20D009F468943F912AE0269F1124E4
:101190003019305D3193DEF6CF010895462F477048
:1011A000405D4193B3E00FD0C9F7F6CF462F4F70A3
:1011B000405D4A3318F0495D31FD4052419302D001
:1011C000A9F7EACFB4E0A6959795879577956795A7
:1011D000BA95C9F700976105710508959B01AC01A7
:1011E0000A2E06945795479537952795BA95C9F7CE
:1011F000620F731F841F951FA01D0895F894FFCFE1
:1012000000000002000000009700000000002D2DEB
:101210002D3E7374617274202000626567696E3AB6
:10122000202523780A0073746174653A2025237899
:101230000A0073746172740061667465722073656C
:101240006E6420736C6176655F77726974652F7266
:1012500065616400736C6176655F77726974655F60
:1012600061636B00646174612073656E6400646126
:1012700074615F77726974655F61636B00736C6141
:101280005F725F61636B0052656164204820627920
:10129000746500646174615F725F61636B007265A5
:1012A00061642073636E64206279746500616674A2
:1012B00065722073746F7000656E643200696E2011
:1012C0007768696C65005B6C785D0A003078003087
:1012D000313233343536373839414243444546009C
:1012E00053746174757320545753523A205B000055
:00000001FF
