:100000000C9472000C9486000C9486000C9486006C
:100010000C9486000C9486000C9486000C94860048
:100020000C9486000C9488000C9486000C94860036
:100030000C9486000C9486000C9486000C94860028
:100040000C9486000C9486000C9486000C94860018
:100050000C9486000C9486000C9486000C94860008
:100060000C9486000C9486000C9486000C948600F8
:100070000C9486000C9486000C9486000C948600E8
:100080000C9486000C9486000C9486000C948600D8
:100090000C9486000C9486000C9486000C948600C8
:1000A0000C9486000C9486000C9486000C948600B8
:1000B0000C9486000C9486000C9486000C948600A8
:1000C0000C9486000C9486000C9486000C94860098
:1000D0000C9486000C9486000C9486000C94860088
:1000E0000C94860011241FBECFEFD1E2DEBFCDBF3E
:1000F00000E00CBF22E0A0E0B2E001C01D92A330FE
:10010000B207E1F70E94B7000C94D5000C940000F0
:100110001F920F920FB60F9211248F939F931D9BE6
:1001200005C083B11C9B13C083B11AC087B58F3F34
:1001300021F481E08093000203C087B58F5F87BD03
:100140008FE39CE90197F1F700C0000009C087B573
:10015000811103C010920002F3CF87B58150EFCF19
:100160009F918F910F900FBE0F901F901895F8944C
:10017000279A8FEF84B980E385B92F988091680022
:1001800081608093680080916B00806280936B0037
:1001900080916B00806180936B0083E884BD85B59E
:0E01A000846085BD17BC7894FFCFF894FFCF24
:00000001FF
