:100000000C9472000C9493000C9493000C94930045
:100010000C9493000C9493000C9493000C94930014
:100020000C9493000C9493000C9493000C94950002
:100030000C9493000C9493000C9493000C949300F4
:100040000C9493000C9493000C9493000C949300E4
:100050000C9493000C9493000C9493000C949300D4
:100060000C9493000C9493000C94C6000C94930091
:100070000C9493000C9493000C9493000C949300B4
:100080000C9493000C9493000C9493000C949300A4
:100090000C9493000C9493000C9493000C94930094
:1000A0000C9493000C9493000C9493000C94930084
:1000B0000C9493000C9493000C9493000C94930074
:1000C0000C9493000C9493000C9493000C94930064
:1000D0000C9493000C9493000C9493000C94930054
:1000E0000C94930011241FBECFEFD1E2DEBFCDBF31
:1000F00000E00CBF12E0A0E0B2E0EAE9F6E000E0C8
:100100000BBF02C007900D92A633B107D9F722E0CA
:10011000A6E3B2E001C01D92A334B207E1F70E944A
:10012000AA010C944B030C9400001F920F920FB67F
:100130000F9211240BB60F922F933F934F935F931F
:100140006F937F938F939F93AF93BF93EF93FF939F
:100150000E9474010E947F010E948801882311F08F
:100160002F9A01C02F98FF91EF91BF91AF919F916E
:100170008F917F916F915F914F913F912F910F9050
:100180000BBE0F900FBE0F901F9018951F920F92ED
:100190000FB60F9211240BB60F922F933F934F93EC
:1001A0005F936F937F938F939F93AF93BF93EF93DF
:1001B000FF9389E392E00E944101811107C089E326
:1001C00092E00E9462018093C60005C08091C10048
:1001D0008F7D8093C100FF91EF91BF91AF919F916F
:1001E0008F917F916F915F914F913F912F910F90E0
:1001F0000BBE0F900FBE0F901F901895CF93DF93FB
:10020000EC018881882369F089E392E00E942E0145
:10021000811105C0688189E392E00E944E01219618
:10022000F0CFDF91CF910895CF93DF93EC017B83E3
:100230006A831D821C821F821E82CB01880F991F38
:100240000E941E029C019983888381E090E0232B09
:1002500011F480E090E0DF91CF910895FC01868158
:1002600097810196628173810E94F6019C0181E071
:1002700090E0448155814217530711F080E090E0EF
:100280000895FC0181E090E0448155812681378109
:100290004217530711F080E090E00895FC0120819F
:1002A000318186819781AC014F5F5F4F57834683D1
:1002B000D901A80FB91F6C938681978199279783DD
:1002C00086830895FC0140815181848195819C0140
:1002D0002F5F3F4F35832483DA01A80FB91F8C911C
:1002E00033273583248308958091060180FD04C05F
:1002F00081E08093370208951092370208951F9984
:1003000004C081E080933802089510923802089565
:10031000CF93C0913702C13089F4809136028111A8
:100320000DC082E292E00E94FE008091380281308E
:1003300019F41092380202C0C0933802809137023B
:100340008093360281E090913802913009F080E08C
:10035000CF910895F894279A809107018E7F80931A
:1003600007012F9880910801816080930801809196
:10037000680084608093680080916D008160809344
:100380006D001092C50088E08093C4008091C10088
:100390008B7F8093C1008091C20086608093C200F1
:1003A0008091C200877C8093C2008091C1008860E8
:1003B0008093C10060E071E089E392E00E94140143
:1003C000882389F0789486E092E00E94FE0089E319
:1003D00092E00E9441018111FACF8091C1008062B8
:1003E0008093C100F4CF80E090E0089597FB072E42
:1003F00016F4009407D077FD09D00E940A0207FC8A
:1004000005D03EF4909581959F4F08957095619524
:100410007F4F0895AA1BBB1B51E107C0AA1FBB1F3A
:10042000A617B70710F0A61BB70B881F991F5A9580
:10043000A9F780959095BC01CD010895CF93DF93E6
:100440008230910510F482E090E0E0914102F09159
:10045000420220E030E0C0E0D0E0309711F140816E
:10046000518148175907C0F04817590761F4828134
:100470009381209719F09B838A832BC0909342022B
:100480008093410226C02115310519F04217530708
:1004900018F49A01BE01DF01EF010280F381E02D23
:1004A000DCCF2115310509F1281B390B243031052A
:1004B00090F412968D919C9113976115710521F01E
:1004C000FB019383828304C0909342028093410294
:1004D000FD01329644C0FD01E20FF31F8193919319
:1004E000225031092D933C933AC020913F02309124
:1004F0004002232B41F420910202309103023093F9
:10050000400220933F022091000230910102211508
:10051000310541F42DB73EB74091040250910502D8
:10052000241B350BE0913F02F0914002E217F307E4
:10053000A0F42E1B3F0B2817390778F0AC014E5F53
:100540005F4F2417350748F04E0F5F1F509340024E
:1005500040933F028193919302C0E0E0F0E0CF012D
:10056000DF91CF9108950F931F93CF93DF9300975F
:1005700009F48CC0FC01329713821282009141026F
:10058000109142020115110581F420813181820F01
:10059000931F20913F02309140022817390779F5C7
:1005A000F0934002E0933F0271C0D80140E050E078
:1005B000AE17BF0750F412962D913C911397AD01E1
:1005C0002115310509F1D901F3CF9D01DA013383FA
:1005D000228360817181860F971F8217930769F4C8
:1005E000EC0128813981260F371F2E5F3F4F318361
:1005F00020838A819B8193838283452B29F4F09306
:100600004202E093410242C01396FC93EE9312978C
:10061000ED01499159919E01240F351FE217F3070F
:1006200071F480819181840F951F029611969C939D
:100630008E938281938113969C938E931297E0E020
:10064000F0E0D80112968D919C911397009719F0C4
:10065000F8018C01F6CF8D919C9198012E5F3F4F50
:10066000820F931F20913F023091400228173907D3
:1006700069F4309729F4109242021092410202C0AC
:10068000138212821093400200933F02DF91CF91B8
:0A0690001F910F910895F894FFCF19
:10069A00000043022000496E697469616C697A61DD
:1006AA0074696F6E20697320646F6E65202E2E2E1A
:1006BA000A00427574746F6E2077617320707265D8
:0606CA00737365640A0071
:00000001FF
