:100000000C9472000C9486000C9486000C9486006C
:100010000C9486000C9486000C9486000C94860048
:100020000C9486000C9486000C9486000C94860038
:100030000C9486000C9486000C9486000C94860028
:100040000C9486000C9486000C9486000C94860018
:100050000C9486000C9486000C9486000C94860008
:100060000C9486000C9486000C9486000C948600F8
:100070000C9486000C9486000C9486000C948600E8
:100080000C9486000C9486000C9486000C948600D8
:100090000C9486000C9486000C9486000C948600C8
:1000A0000C9486000C9486000C9486000C948600B8
:1000B0000C9486000C9486000C9486000C948600A8
:1000C0000C9486000C9486000C9486000C94860098
:1000D0000C9486000C9486000C9486000C94860088
:1000E0000C94860011241FBECFEFD1E2DEBFCDBF3E
:1000F00000E00CBF22E0A0E0B2E001C01D92A13000
:10010000B207E1F70E94B3000C94C2000C94000007
:10011000279A2F9A089583E884BD85B5846085BDAC
:1001200017BC089587B58F3F21F481E080930002CA
:1001300003C087B58F5F87BD8FE39CE90197F1F717
:1001400000C00000089587B5811103C0109200021D
:1001500003C087B5815087BD8FE39CE90197F1F714
:1001600000C0000008950E9488000E948B007894CF
:1001700080910002811103C00E949200F9CF0E9479
:08018000A300F6CFF894FFCFB5
:00000001FF
