:100000000C9472000C9493000C9493000C94930045
:100010000C9493000C9493000C9495000C94930012
:100020000C9493000C9493000C9493000C94D400C3
:100030000C9493000C9493000C9493000C949300F4
:100040000C9493000C9493000C9493000C949300E4
:100050000C9493000C9493000C9493000C949300D4
:100060000C9493000C9493000C9409010C9493004D
:100070000C9493000C9493000C9493000C949300B4
:100080000C9493000C9493000C9493000C949300A4
:100090000C9493000C9493000C9493000C94930094
:1000A0000C9493000C9493000C9493000C94930084
:1000B0000C9493000C9493000C9493000C94930074
:1000C0000C9493000C9493000C9493000C94930064
:1000D0000C9493000C9493000C9493000C94930054
:1000E0000C94930011241FBECFEFD1E2DEBFCDBF31
:1000F00000E00CBF13E0A0E0B2E0E2EEF8E000E0C8
:100100000BBF02C007900D92A434B107D9F723E0CA
:10011000A4E4B3E001C01D92A235B207E1F70E944A
:1001200087020C946F040C9400001F920F920FB67C
:100130000F9211240BB60F922F933F934F935F931F
:100140006F937F938F939F93AF93BF93EF93FF939F
:100150008091440381110CC083E884BD85B584601F
:1001600085BD16BC10926E0017BC81E080934403DD
:100170008091000184FF03C00E94480202C00E94D7
:100180006602FF91EF91BF91AF919F918F917F9107
:100190006F915F914F913F912F910F900BBE0F90F8
:1001A0000FBE0F901F9018951F920F920FB60F92CF
:1001B00011240BB60F922F933F934F935F936F933E
:1001C0007F938F939F93AF93BF93EF93FF9314BC51
:1001D00015BC109244030E940A020E9415020E945C
:1001E0001E02882311F02F9A01C02F98FF91EF91E2
:1001F000BF91AF919F918F917F916F915F914F913F
:100200003F912F910F900BBE0F900FBE0F901F903C
:1002100018951F920F920FB60F9211240BB60F92E2
:100220002F933F934F935F936F937F938F939F93FE
:10023000AF93BF93EF93FF9388E493E00E94E501AF
:10024000811107C088E493E00E94FB018093C600FF
:1002500005C08091C1008F7D8093C100FF91EF9117
:10026000BF91AF919F918F917F916F915F914F91CE
:100270003F912F910F900BBE0F900FBE0F901F90CC
:100280001895CF93DF93EC018881882369F088E487
:1002900093E00E94CD01811105C0688188E493E05C
:1002A0000E94EC012196F0CFDF91CF910895CF937A
:1002B000DF931F92CDB7DEB7682F88E493E06983A0
:1002C0000E94CD016981811107C088E493E00F90FD
:1002D000DF91CF910C94EC010F90DF91CF910895B5
:1002E0008F929F92AF92BF92CF92DF92EF92FF9246
:1002F0000F931F93CF93DF936B017C018AE0882ECD
:10030000912CA12CB12CF7FE0BC08DE20E9457015D
:10031000F094E094D094C094C11CD11CE11CF11C59
:100320008AE0C816D104E104F1048CF0C701B601DB
:10033000A50194010E9401038B01D82FC92FCA0186
:10034000B9010E9470016801ED2EFC2EDCCF80E324
:100350008C0DDF91CF911F910F91FF90EF90DF9067
:10036000CF90BF90AF909F908F900C945701CF93F8
:10037000DF93EC017B836A831C821D82CB01880F93
:10038000991F0E9442039C019983888381E0232B5B
:1003900009F480E0DF91CF910895DC011496EC918F
:1003A0001497F0E015962C91159730E0C90101964D
:1003B00012966D917C9113970E94ED029C0181E051
:1003C000E217F30709F080E00895FC0181E0248141
:1003D0009581291380E00895DC01ED91FC9111973E
:1003E00015968C91159791E0980F15969C93E80FB0
:1003F000F11D60830895DC01ED91FC911197149635
:100400008C91149791E0980F14969C93E80FF11D2E
:10041000808108958091060180FD04C081E0809371
:10042000460308951092460308951F9904C081E081
:10043000809347030895109247030895CF93C09186
:100440004603C130C9F480914503811115C083E290
:1004500092E00E94410180914703813039F485E4A4
:1004600092E00E9441011092470306C08AE492E0A4
:100470000E944101C0934703809146038093450346
:1004800081E090914703913009F080E0CF91089589
:1004900087B5803F21F487BD80E592E015C097B510
:1004A00080910002890F87BD8AE992E00E94410194
:1004B00081EC92E00E94410167B570E080E090E03D
:1004C0000E9470018BEC92E00C94410187B5811180
:1004D00006C08FEC92E00E94410117BC08958CE1A8
:1004E00093E00E94410181EC92E00E94410167B5D6
:1004F00070E080E090E00E9470018BEC92E00E943E
:10050000410187B590910002891B87BD0895F89439
:10051000279A6D9A809101018061809301018091F9
:1005200007018E7F80930701809102018061809393
:100530000201759A2F9880910801816080930801CB
:100540008091680084608093680080916D00816074
:1005500080936D008CE080936A00ED9A1092C50044
:1005600088E08093C4008091C1008B7F8093C1009C
:100570008091C20086608093C2008091C200877C17
:100580008093C2008091C10088608093C10060E0C8
:1005900071E088E493E00E94B7018823D9F0789451
:1005A00068EC7DE780E090E00E94700181E292E0DB
:1005B0000E94410187E092E00E94410188E493E0BB
:1005C0000E94E5018111FACF8091C1008062809381
:1005D000C100F4CF80E090E00895AA1BBB1B51E15D
:1005E00007C0AA1FBB1FA617B70710F0A61BB70BA3
:1005F000881F991F5A95A9F780959095BC01CD0148
:100600000895052E97FB1EF400940E94180357FDD1
:1006100007D00E94200307FC03D04EF40C9418036B
:1006200050954095309521953F4F4F4F5F4F08951E
:1006300090958095709561957F4F8F4F9F4F08954E
:10064000A1E21A2EAA1BBB1BFD010DC0AA1FBB1FD6
:10065000EE1FFF1FA217B307E407F50720F0A21B48
:10066000B30BE40BF50B661F771F881F991F1A94B5
:1006700069F760957095809590959B01AC01BD01DF
:10068000CF010895CF93DF938230910510F482E07B
:1006900090E0E0915003F091510320E030E0C0E0A1
:1006A000D0E0309711F14081518148175907C0F0CF
:1006B0004817590761F482819381209719F09B8331
:1006C0008A832BC0909351038093500326C0211539
:1006D000310519F04217530718F49A01BE01DF01E2
:1006E000EF010280F381E02DDCCF2115310509F106
:1006F000281B390B2430310590F412968D919C9172
:1007000013976115710521F0FB019383828304C067
:100710009093510380935003FD01329644C0FD0134
:10072000E20FF31F81939193225031092D933C9353
:100730003AC020914E0330914F03232B41F4209176
:1007400003023091040230934F0320934E03209113
:100750000102309102022115310541F42DB73EB757
:100760004091050250910602241B350BE0914E0387
:10077000F0914F03E217F307A0F42E1B3F0B28174D
:10078000390778F0AC014E5F5F4F2417350748F00A
:100790004E0F5F1F50934F0340934E0381939193ED
:1007A00002C0E0E0F0E0CF01DF91CF9108950F9318
:1007B0001F93CF93DF93009709F48CC0FC0132970D
:1007C00013821282009150031091510301151105FB
:1007D00081F420813181820F931F20914E0330914B
:1007E0004F032817390779F5F0934F03E0934E0331
:1007F00071C0D80140E050E0AE17BF0750F4129628
:100800002D913C911397AD012115310509F1D901C5
:10081000F3CF9D01DA013383228360817181860FDA
:10082000971F8217930769F4EC0128813981260FFD
:10083000371F2E5F3F4F318320838A819B819383B3
:100840008283452B29F4F0935103E093500342C077
:100850001396FC93EE931297ED01499159919E01E5
:10086000240F351FE217F30771F480819181840F03
:10087000951F029611969C938E9382819381139675
:100880009C938E931297E0E0F0E0D80112968D9140
:100890009C911397009719F0F8018C01F6CF8D9178
:1008A0009C9198012E5F3F4F820F931F20914E0322
:1008B00030914F032817390769F4309729F41092C3
:1008C00051031092500302C01382128210934F03FF
:1008D00000934E03DF91CF911F910F910895F894EB
:0208E000FFCF48
:1008E20002000052032000496E697469616C697AE2
:1008F2006174696F6E20697320646F6E65202E2E9D
:100902002E0A00427574746F6E20776173207072C4
:1009120065737365642E205B4C6564207374617427
:1009220075733A20004F4E5D0A004F46465D0A003D
:100932004C6564206272696768746E657373206FB8
:100942006E204D41582076616C75652C207475724D
:100952006E20656E636F64657220746F20746865C3
:10096200206C6566742C20746F206D616B65206944
:1009720074206461726B65720A00427269676874FE
:100982006E657373207570205B526F74617465209D
:10099200646972656374696F6E3A2052696768743C
:1009A200002C2076616C75653A2000255D0A004CAA
:1009B2006564206272696768746E657373206F6E16
:1009C200204C4F572076616C75652C207475726EC1
:1009D20020656E636F64657220746F207468652091
:1009E20072696768742C20746F206D616B65206971
:1009F200742062726967687465720A00427269677C
:100A020068746E65737320646F776E205B526F74C7
:100A120061746520646972656374696F6E3A204C13
:040A22006566740091
:00000001FF
